:020000041000EA
:10000000002008205D0100101B0100101D010010E0
:100010001101001011010010110100101101001058
:100020001901001019010010190100101F01001022
:100030001101001019010010ED230310230100101D
:100040001101001011010010110100101101001028
:100050001101001011010010110100101101001018
:100060001101001011010010110100101101001008
:1000700011010010110100101101001011010010F8
:1000800011010010110100101101001011010010E8
:1000900011010010110100101101001011010010D8
:1000A00011010010110100101101001011010010C8
:1000B00011010010110100101101001011010010B8
:1000C00011010010110100101101001011010010A8
:1000D0001101001011010010110100101101001098
:1000E0001101001011010010110100101101001088
:1000F0001101001011010010110100101101001078
:100100001101001011010010110100101101001067
:10011000EFF30580103800BE00BE00BE00BE00BE7A
:1001200000BE00BEF2EB8871B0E60C1058E70C1070
:10013000B801001090A31AE7D3DEFFFF420121109F
:10014000FF010000F83A0D00793512AB4FF00000C6
:100150002749086006C881F3088810474FF05040CF
:10016000006810B14FF00000F2E722496B46ADF590
:10017000807D6A4600F01CF868460130804740B038
:100180000DA40ECC002902D000F012F8F9E71A49AC
:100190001A4A002000E001C19142FCD11849884769
:1001A000184988471849884700BEFDE701C901C2C0
:1001B0009A42FBD3704700BFDCE6061000000E40F9
:1001C00000010E4058E70C1020010020F8550020D7
:1001D000303C0D100000082000000820303C0D10BD
:1001E0000000082000000820000000007047000008
:1001F00008ED00E0DCE60610F8550020C0070120FD
:10020000F1A00610AD1B0310E9A00610F8B500BF61
:10021000064B0749C91A891048BF0131491003D05C
:10022000044B0BB101481847704700BFF855002038
:10023000F85500200000000008B5054B1BB105492A
:100240000548AFF30080BDE80840FFF7E1BF00BFFD
:100250000000000074930020DCE60610034610B591
:10026000500C1446C2F34F0221B1E10702D40C48EE
:1002700019F02EFA904206D198420FD00246094951
:10028000094818F04EFA984204D9C21A074906489C
:1002900018F047FA9A4201D20549F1E710BD00BFB4
:1002A000E0E70610EAE7061084980710F8E7061062
:1002B00000E806102DE9F74F0024DDE90CA70646FB
:1002C0008B461546A046A1460193019B9C4204D152
:1002D000B1453CD2224819F0FBF9B44210D2BAF829
:1002E00002209205F6D45BF8240009F101099AF87E
:1002F0000220012A24D10EF0F1F907F8240017E0BA
:10030000BAF800100022C900284641F0020109F0A5
:1003100055FE88B9BAF80220D30505D5BAF80020F1
:100320001049114818F0FDF9DAF8042047F82420A4
:1003300001340AF1080AC8E7406808F10108D6E765
:10034000022A01D10EF084F847F82400F0E72B6868
:10035000B8EBD30F01D20548BDE703B0BDE8F08F7D
:100360001EE8061019E806108498071028E8061001
:1003700070B51E460446154686B002EB800203A8FF
:1003800009F0F0FD0B9B294601930A9B2046009340
:1003900003AA3346FFF78EFF06B070BD08B50148CB
:1003A00019F0B8F932E8061010B50446016188006A
:1003B00009F05EFD606110BD10B5044611B1C06862
:1003C00009F07EFD6069BDE8104009F079BD0129A2
:1003D00038B504460D460BDC02694FF0FF31406929
:1003E00092006DF0F7F9002325706370636038BDEB
:1003F000406809F03DFD6368E060A360F3E70246F2
:10040000407810B548B913785468022B08BFD368F8
:10041000214408BF1819516010BD0020FCE70023DB
:1004200043700378012B9EBF4268436943F8212043
:10043000704742684B1E134449420B40436070476B
:1004400038B50C461546FFF7DAFF10B10444A04258
:1004500000D138BD00F8015B2D0AF8E710B50C4655
:100460000221FFF7CCFF10B10470240A447010BDC4
:1004700038B50D4604211446FFF7C1FF28B10570B9
:1004800084702D0A240A4570C47038BD012970B5E6
:10049000054606DC002909DA023921F00104FE26AE
:1004A00006E08B1E012BF7D80024F8E70024F22683
:1004B000284646F43541FFF7D1FF44B17F2C09D8D7
:1004C00044F43041284641F08001FFF7C7FFC5E9F9
:1004D000066470BDA300A201DBB202F4E0421A433D
:1004E0004FF2AD21284642F45062FFF7C1FFEEE71C
:1004F000C16910B5044629B17F290BD841F43041B8
:10050000FFF7ACFFA1692046BDE8104041F43D4132
:10051000FFF7A4BF8B008A01DBB202F4E0421A436A
:100520004FF20D2142F45062FFF7A2FFEAE71143B8
:1005300041EAC301FFF792BF072A85BF083AD200FC
:10054000D20042F04002072985BF08391143114308
:1005500041F0800141F48C41FFF780BF30B4DCB240
:1005600044EA02225C101D0104F48064C3F30333E7
:1005700005F4E04523432A43194330BCFFF778BF15
:1005800038B50546436953F821404368E41A043CF2
:10059000C4F34A0141F46041FFF760FF2B78022B5E
:1005A0000AD1B4F5006F07D36FF30A0414F5006F96
:1005B00014BF0020012038BD0120FCE7F8B54469D4
:1005C000074654F8224042681E46A41A043C6510AF
:1005D000BBB9EDB245EA012141F45041FFF73EFFBE
:1005E0003B78022B0BD1FF2C09D924F0FF0414F522
:1005F000807F14BF0024012426463046F8BD012424
:10060000FAE76211C5F30A0502F400522A43A51263
:10061000231205F48065C4F3053403F40063254315
:100620001A4345EA811142F4004241F47041FFF758
:100630001FFFE2E738B50546436953F82140436898
:10064000E41A043CC4F34F02C4F30A3142F4784282
:1006500041F47041FFF70CFF2B78022B0AD1B4F55F
:10066000800F07D36FF3150414F5800F14BF00201B
:10067000012038BD0120FCE7F8B504460D461646BA
:10068000476813460A464FF24021FFF767FF2046AE
:100690002A464FF2C021330CFFF760FF3846F8BD01
:1006A000072910B4044609D8FF2A07D842EA0121D5
:1006B0005DF8044B41F40051FFF7D0BEB2F5803F26
:1006C00008D2134620460A465DF8044B4FF24021FB
:1006D000FFF744BF20465DF8044BFFF7CDBF2DE97F
:1006E000F84341EA0207072F06460C461546DDF897
:1006F00020904AD803FA09F7FF2F0CD8914201D075
:10070000FFF71AFF47EA042141F440513046BDE8A3
:10071000F843FFF7A3BEFF2B4FEAC10814D891425C
:1007200018D043EA012343F40051FFF797FE44EA4F
:100730008911304641EA0801FFF790FE48EA851129
:10074000214341F4C051E1E7914203D03A46FFF71B
:10075000A7FFF3E7012584F0070905FA09F53046FC
:1007600045F43441FFF77AFE3A4649463046FFF7F2
:1007700097FF44EA891141EA080141F4C05130462B
:10078000FFF76CFE45F43C41C0E7BDE8F88300008C
:1007900008B50378012B04D9FF2902D9054818F0C0
:1007A000B9FFC9B241EA022141F41041BDE8084055
:1007B000FFF754BE56E8061008B50378012B04D99C
:1007C000FF2A02D9054818F0A5FFD2B242EA01215A
:1007D00041F41841BDE80840FFF740BE56E8061056
:1007E000D2B242EA012141F42841FFF737BE38B5C1
:1007F0000C460546436953F8223042689B1A43F081
:1008000001030A460A3B4FF24021FFF7A7FE2346A9
:10081000284622464FF43241FFF789FE210101F0BC
:10082000800104F00704214341F488412846BDE8D3
:10083000384041F07801FFF711BE000073B51F2B5F
:1008400005460C46069E11D8114307290ED81A49B1
:1008500044EAC202895D41F0010142EAC12141EA54
:10086000831102B0BDE87040FFF7F8BD03FA06F14E
:10087000B1F5805F0DD2284642EA461641EA0432BD
:1008800046F4784141F0900102B0BDE87040FFF7B6
:10089000EFBD214628461F3B0096FFF720FF064B81
:1008A000E1009B5D284643F0010341EAC321214357
:1008B00041F4F861D5E700BF737E07102DE9F743D7
:1008C0001F2B06460C46154698460A9F10D841EA4B
:1008D0000203072B0CD8204BD95D44EAC12141EA21
:1008E000C20141EA881103B0BDE8F043FFF7B6BD8D
:1008F00008FA07F2B2F5805F0DD2304645EA47119B
:1009000041F4784142EA043241F0800103B0BDE88D
:10091000F043FFF7ADBD4FF0010909FA05F9304684
:1009200049F43441FFF79AFD2A4629463046A8F19A
:100930001F030097FFF7D3FE074B44EAC501DB5DB9
:10094000304641EAC32141F4F861FFF787FD3046A4
:1009500049F43C41C7E700BF737E0710436910B4F8
:1009600053F8211043680446CB1A043B0131C3F30A
:100970004A020ED0D91C0CDA23F4FF6121F00701E2
:1009800011F5006F05D15DF8044B42F46041FFF7AB
:1009900065BDC3F30A33204642F438425DF8044B88
:1009A00043F47041FFF764BD436930B453F822202B
:1009B00043680546D31A043B01324FEA63040ED064
:1009C000DA1C0CDA23F0FF0212F5807F07D1E4B2C3
:1009D00044EA012141F4504130BCFFF73FBD5A11B8
:1009E000C4F30A0402F4005222439C12181204F4C5
:1009F0008064C3F3053300F400602343024343EAF9
:100A00008111284630BC42F4004241F47041FFF7A6
:100A10002FBD37B51446022205460B4600922146EB
:100A20000722FFF70BFF2846E10041F48F4103B096
:100A3000BDE83040FFF712BD73B50DF105050B465B
:100A4000294602F07F06D2092C4605F8016DF8D13F
:100A5000491B984740B10146A31E01AC13F8012F72
:100A6000A34203D15B1BC25402B070BD62F07F028F
:100A700001F8012BF2E703460268002010B512F8D6
:100A8000011B01F07F04090644EAC010F7D41A6084
:100A900010BD07B5019001A8FFF7EDFF03B05DF8A9
:100AA00004FB10F9013B002BFBDB70472DE9F04FF5
:100AB000002504468A4691B0D0F804C0CDE905234C
:100AC0008389CDE9015503930CF1010343609CF840
:100AD0000020D0F800B002F00306A3EB0C011706CB
:100AE00001F1FF3103F101001BD400224FF0060C8D
:100AF000CDE909220133636013F8011C0A9F01F05C
:100B000001000CFB02FE904007430A97C1F3450029
:100B1000099F00FA0EF00743090609971AD501321A
:100B2000E8E7606010F8012C029FC2F380138B404D
:100B30001F4302F004038B4002971E43019FC2F340
:100B4000C0038B401F4302F001038B401D430197FC
:100B50000346C2E70021A368E18103F1040804937E
:100B6000039B40469B001A4607936CF033FE039BA1
:100B7000019A9B1B08939B1A029A013B564508EB6E
:100B8000830902F0040272D22AB9534632469849C8
:100B9000984817F0C6FD0B93069BAAEB060003EBE3
:100BA000860115F05FF90B9BA9F1040948F82300B1
:100BB0003346069A0499079802EB830308189A4271
:100BC0007CD1029B059A03F008030B931343029B0D
:100BD00003F0020700F0F280002F74D010460FF0EF
:100BE000AFF90290C9F80000069B03EB8A090023C5
:100BF0000693019BF3180C93DDE90523934264D11E
:100C00006FF003026A43EF1C02EB8702B8002F4625
:100C1000089B5A444FEA830908EB8303A3F1040CB1
:100C2000002F40F09580079A0C38034442449A42C2
:100C300000F299806068FFF734FF002296420F901F
:100C400040F09A80049E04354E44019BBB4240F024
:100C50009780099B65680A9F1D44039B2F445E1E75
:100C6000AF4240F0B980676011B0BDE8F08F22B1AB
:100C7000614AA9F1040948F82320029B059A03F070
:100C80000803134311D1721B524515D8039A05EB83
:100C90000A03A2EB0A00049A9B1B0BEB830302EBF3
:100CA00080000BEB850C634501D1534681E71A693F
:100CB000043340F80429F6E7534668E752F8041B6A
:100CC00040F804197BE702978EE76068FFF7E9FEBA
:100CD0000021D9F800A00F900C9B8B4204D857BB81
:100CE00046494FEADA0217E00FA80D91FFF7C3FE5D
:100CF000DBF804200D99926832F81020D20042F0FF
:100D00000202924515D1039B5A1E521A58F822101E
:100D100029B13B494FEADA02364817F002FDD9F80B
:100D2000041048F82210069B09F1080901330693C4
:100D300062E70131D0E7029B01225146181D09F0FC
:100D40003DF94268002AE4D1D9F804204260EAE77C
:100D50005CF804EFBEF1000F03D152F82710CCF875
:100D60000010013F5CE753F8040B00287FF45FAFED
:100D7000D21A24499210CFE7FFF793FE01325DE7C4
:100D80000FA8FFF778FE56F8042992B9DBF8043073
:100D90009B6833F810900B9B6BB15BF825004FEA12
:100DA000C90141F00201043009F008F918B14368A3
:100DB0007360013749E74A461349ADE7019B13B118
:100DC000124818F085FC002F3FF443AF01980FF054
:100DD000B7F8C9F800003CE715F8019BA6EB090934
:100DE00058F829000EF0BCFA48F8290038E700BF8F
:100DF000EAE7061084980710B4A9071077E80610F0
:100E00006CE806107DE8061087E806108FE80610EB
:100E100030B40568ED68456000F11005856030BCB0
:100E2000FFF744BE30B40468E568A4682D680DB1CE
:100E300054F82540446000F11004846030BCFFF792
:100E400035BE000040280B4610B533D00DD800F059
:100E5000FD003C2809D1622918D848294FF001012A
:100E600006D8422B31D0482B54D02F4818F080FAA6
:100E700040F2C944A3F14900C0B201FA00F0204297
:100E80004DD1622B21D0512BEFD111E0A1F16403A0
:100E9000DBB20D2BE9D8012101FA03F313F4927FA1
:100EA0003DD113F0120F35D142F201000342DCD0E4
:100EB000082030E062291AD8482908D8422903D0EE
:100EC000482925D00129D0D10121084623E0A1F1EC
:100ED0004900012140F2C944C0B201FA00F02042A9
:100EE0001FD1622BF1D0512BBFD10821EDE7A1F129
:100EF0006403D9B20D29B8D801238B4013F4927F33
:100F00000CD142F201010B42EFD113F0120FACD021
:100F10000221DAE7022002B1116010BD0421042091
:100F2000F9E70421D1E700BFA0E80610512808B571
:100F30002CD8412803D8012857D0002051E042384E
:100F40000F28FAD801A353F820F000BFEB0F0010D0
:100F50003B0F00103B0F00103B0F00103B0F001029
:100F60003B0F0010F50F0010FB0F00103B0F00109F
:100F70003B0F0010FB0F00103B0F00103B0F001049
:100F80004310001049100010171000106238C3B24F
:100F90000F2BD2D80F28D0D801A353F820F000BFD0
:100FA000E10F00103B0F0010351000103B0F001038
:100FB000271000103B0F0010EF0F00104910001019
:100FC0003B0F00103B0F0010491000103B0F0010AA
:100FD0003B0F00103B0F00103B0F001007100010DC
:100FE0008856400040F001002DE0885CF9E731F9B7
:100FF0001200F6E731F81200F3E751F82200BDE8DD
:10100000084010F02ABD01EBC201D1E90001BDE8A2
:10101000084010F0F7BC01EBC201D1E90001BDE8C6
:10102000084010F00ABD01EB82010868BDE80840E5
:101030000FF044BC01EBC201D1E9000165F050F8AA
:10104000F4E751F8220008BD51F82200BDE808403D
:1010500010F0E8BC70B50446084652B94FF0FF35B1
:10106000621E134410B193F90010C8170146002204
:1010700009E00125F6E71E78090241EA10612B44D8
:1010800046EA00200132A242F5D170BD2DE9F347B6
:101090008246904601AA0F4699461E68FFF7D2FE87
:1010A000BAF1400F09D14FF03C0A019BA6EB0806AC
:1010B0005A1E16445B421E404644AAF13E04624258
:1010C00006EB000362415A2F94BF00210121C9F8A9
:1010D00000303346FFF7BEFF4F2F04460D465AD06F
:1010E000532F04D102B0BDE8F04713F079B8652F53
:1010F00025D1C4F384221F2A80B2C4F309031AD075
:1011000062B170325B03000443EAC25300F0004056
:10111000184302B0BDE8F0470FF0D0BB6BB17024AC
:1011200059008BB24905224604F1FF34F8D5A3F5E6
:1011300080639BB2E6E7FF22E4E71A46E2E7662F08
:10114000E7D0642F02D164F0CBFFE2E75A2F12D927
:1011500010F1804441F10005B4F1004F75F1000534
:1011600004D202B0BDE8F04710F05CBC02B0BDE8AC
:10117000F04710F047BCB0F1804F75F1000104D288
:1011800002B0BDE8F04710F068BC294602B0BDE8E7
:10119000F04710F052BC02B0BDE8F08713B504462A
:1011A0000193104601AB29B9224619466DF0AEF8FD
:1011B00002B010BD23441444A242F9D013F8011D1B
:1011C00002F8011BF8E700002DE9FF470C9F80465D
:1011D000144601AA89469A463D68FFF733FEB8F1E6
:1011E000400F064609D14FF03C08019BA5EB0A05CC
:1011F0005A1E15445B421D405544A8F13E01AB19EF
:101200003B604F424F41B9F1650F1DD014D8B9F181
:101210004F0F3FD0B9F1640F4FD0A3076AD12268B6
:101220003E4B9A4266D12B4632463946204610F054
:1012300021FB04B0BDE8F087B9F1660FEDD120467F
:101240000DF05EF9044625E020460DF059F9C20480
:10125000C0F34931C0F3C75248BF0131FF2A28D03B
:101260007AB1B2F170031FD50B3324DB41F48061F6
:1012700089B2C2F17002114101F00103C1F34E01C4
:1012800019440023264A02EA104241EA020444EAD1
:101290008324A4B2042E304623462A46394628BF6A
:1012A0000420FFF77BFFC4E73F2BEBDD1F2300216A
:1012B000E8E71F23E6E70021E3E720460DF020F9E9
:1012C00067F084FFCDE9020104AB03EB87032A46F4
:1012D00053F8083C39460420FFF760FFB8F13E0898
:1012E00018BF4FF0010804AB03EB880858F8084C0E
:1012F0000435CFE720460DF0ABF8042E0446C9D9DB
:101300000028B4BFFF210021284608226CF062FAB1
:10131000B8F13E0F08BF0435BCE700BF789E071048
:101320000080FFFF10B50446712C184607D8612CC9
:1013300006D8012C50D0423CE3B20F2B26D910BD69
:10134000623C0F2CFBD801A353F824F0D9130010F2
:101350003F130010031400103F130010F11300108E
:101360003F130010DD130010111400103F13001084
:101370003F130010111400103F1300103F13001012
:101380003F1300103F130010E31300100F2CD6D8AA
:1013900001A353F824F000BFD91300103F1300102D
:1013A0003F1300103F1300103F1300103F130010B5
:1013B000DD130010111400103F1300103F13001034
:1013C000111400103F1300103F1300103F130010C2
:1013D00011140010E31300108854B0E721F8120034
:1013E000ADE701EBC203C41741F832005C60A6E729
:1013F00007EE900AF8EEE77A01EB8202C2ED007A7E
:101400009DE701EBC20464F079FEC4E9000196E7B0
:1014100041F8220093E700BF64282DE9F041064619
:101420000F4614461D4620D0662816D04F2826D0D9
:1014300013F0030826D11A68184B9A4222D142466B
:1014400001464020FFF7FEFC414600FB04730246C4
:101450002846BDE8F04110F00DBA184601EB8204B1
:101460000DF04EF82060BDE8F081184601EBC20493
:101470000DF046F867F0AAFEC4E90001F3E741F871
:101480002230F0E728460CF0E3FF224603463946B7
:101490003046BDE8F041FFF745BF00BF789E07101A
:1014A00037B50C4601A9206813F0DEF905466068DF
:1014B00013F054F929460023019A08F0A1FC0546CF
:1014C000A06813F04BF9512808D040F21E4398420F
:1014D00012D0502812D00A4817F04AFF01210023E9
:1014E00028461A4617F02EFA0649044608200CF042
:1014F000CEFE446003B030BD0021F0E70221EEE7EC
:10150000ABE80610489507104FF05043F0B515466C
:101510001A68334B012853F8223085B0D3E903CE43
:101520001AD94C68062C14D0A6070FD122682D4E6C
:10153000B2420BD12646022810D08A68062A0DD066
:10154000900703D11068274EB0422BD0002018F02E
:10155000BFF866467446EEE7664674460F68BA07FB
:1015600022D13A6820498A421ED16846CDE902EC70
:101570001E49C3E903640CF013FE7868830708D1A1
:1015800003681B4A934202D01A4A934201D143682E
:101590005C6017F0D1F9044601200CF00FFE2046E4
:1015A00005B0F0BD1646D9E76DB9384613F0D6F848
:1015B00008F034FC012533462246294605B0BDE833
:1015C000F04017F0BFB96946052238460DF06EF9B4
:1015D000DDE900120023DF2008F012FCEBE700BF7A
:1015E000C05E0020789707104895071021840110ED
:1015F000BC9C07109C9C07100222FFF785BF0122AC
:10160000FFF782BF0022FFF77FBF70B506460D4689
:1016100000246B68A34200D870BDAB6853F8341047
:1016200021B1042902D0304610F055FC0134F0E716
:101630002DE9F74338B94F494F480AF00BFB062014
:1016400003B0BDE8F08341F6E2330C689C424CD114
:101650000021084610F0CAFE48490190FFF7D5FF67
:1016600047490198FFF7D1FF464E019F35786DB984
:101670000120454A01A910F011FD019BD3E9027830
:10168000FE1CB608AE4210D14049D5E730466CF09A
:10169000B3FEC11E0446304612F012FD013401466D
:1016A000384610F018FC2644E0E7A94658F829000F
:1016B00013F06CF8B14401462F480AF0CBFA4F45BD
:1016C0000DD9C0F11200002807DD044630492A4830
:1016D0000AF0C0FA013CF9D1E8E71230F3E72D49EE
:1016E00025480AF0B7FA0135CCE720460CF0DCFDBE
:1016F0000546294920480AF0ADFA002120460CF0A1
:1017000005FEEA8825491C480AF058FE244B9D42F4
:1017100024D164680025043463689D428FD2A36895
:1017200053F8356003EBC502B6B1042E14D01D4941
:10173000114857680AF08EFA002130460CF0E6FD99
:1017400019490D480AF086FA002138460CF0DEFDF2
:10175000104909480AF07EFA0135DDE7134B9D4236
:1017600018BF2C46E37C002B3FF469AF04EB8304E5
:101770002469CFE73C060810A88F071088A007103F
:10178000DC9F0710E0240810E0970710BAE8061065
:10179000B06F07105B6D0710DEE80610E6E8061074
:1017A0003CA1071036250710F6E8061084AA07109A
:1017B000022281680248C900114308F0FFBB00BF44
:1017C000308E00202DE9F04F85B0044600AF18465A
:1017D0000E46BA21984615460EF09AFB0022814625
:1017E00041F2D20108F1040008F0E8FB07F10C0116
:1017F0008046484613F038F8FB6801460344B8F1C8
:10180000000F00D0013C4CB999420AD11C491D4837
:1018100016F07EFF13F8012D2E2AF3D09942F9D34A
:10182000F2E7D5F800905A1A02EB090404F1080314
:1018300023F00703ADEB030D6B4668467A604FEA71
:10184000D30BE8466CF062FD04F1010A7A68B9F145
:10185000000F09D02E23501C02F83B3031684A4655
:1018600068446CF053FD54462146404616F0D8F9C2
:1018700016F0A8FA143730602C60BD46BDE8F08F32
:10188000FBE80610109A071010B518F06AFE08223F
:10189000084904466CF072F8024630B9014604F17A
:1018A0000800BDE8104007F0FDBD2046BDE810402F
:1018B00026F0C2B80FE9061010B50446FFF7E4FFA2
:1018C00002280ED0616801220239204618F0A8FED5
:1018D0006D2303702046FFF7D7FF831E58425841FF
:1018E000400010BD10B50446FFF7CEFF012808D018
:1018F0002046044918F087FE2046BDE81040FFF757
:10190000DBBF10BDC340071030B5D20085B00D4617
:1019100042F0020240F21721044617F0AFF94FF0EF
:10192000504319680C4B626853F8213068461969B6
:101930000291D9680391C3E9032208490CF030FCF5
:1019400000222146284603F079FF16F0F5FF01201A
:101950000CF034FC05B030BDC05E002021840110C5
:10196000F0B5044685B008460E4618F0FAFD082288
:10197000224905466CF002F8D0B905F108076A461D
:10198000384601A907F08EFD019B022B10D1009D66
:1019900004F1080395E8030083E80300384616F0D5
:1019A000F1F902462046A968FFF7AEFF05B0F0BD89
:1019B000284616F0E7F9736807461D4415F8033CFE
:1019C0006D2B07D102A9029416F0A2F8DDE90201FD
:1019D0003A46E9E708F022FA0546026840F2172184
:1019E000D200204642F0020217F048F96368012154
:1019F0001A46284616F0A6FFD8E700BF0FE90610E2
:101A00002DE9F04F0646032E0D460868B1B009D9FE
:101A1000042ED1F80CA022D00C69641005D500204A
:101A200017F0A6FC00244FF0060A03A912F01CFFD1
:101A30000490E4B14FF050431A68794B012E53F8EB
:101A400022301B690ED96A68062A0BD0930703D18E
:101A50001168744B994204D0002017F039FE00241D
:101A6000E3E71346204603AA04A9FFF7ABFE039B56
:101A7000002BD4D0002301251C469846DFF8BCB1CA
:101A8000039AAA4207D2BAF1060F0CBF404620467D
:101A900031B0BDE8F08F049E02D0725D2E2A23D1B2
:101AA00029463046019316F0BBF8019B0746E91A18
:101AB000F01816F0B5F806AA064605A9DBF8CC0022
:101AC0000CF070FD059B8BB1F9000022564841F0E7
:101AD000020108F073FA48B1D0F80490B8F1000F91
:101AE00008BFC8464C466B1C0135C9E7802110AAC7
:101AF0000CA818F0DDFC002C3DD12146304610F03A
:101B00007FFD81460028E9D1DBF8CC0008AA07A9AF
:101B10000CF048FDA146079B99450BD301213046A7
:101B200010F06EFD81460028D8D13A463F49404822
:101B300016F0F7FD00230D93089B09A953F829001F
:101B400012F092FE099A014632B10CA818F088FCF6
:101B50002F210CA818F01BFD304616F033F9014672
:101B60000CA818F050FD0CA8FFF7BCFE034610BBF4
:101B700009F10109CFE7204640F21A2109AA16F01F
:101B800063FD09980028D0D012F000FE01460CA891
:101B900018F039FD2F210CA818F0F9FC304616F08A
:101BA00011F901460CA818F02EFD0CA8FFF79AFEBB
:101BB00003460028B9D03846019310F0FFFC1D49B8
:101BC000814609A80B970CF0EBFA019B012B22D15F
:101BD000DDE90D1012F074FA40F21A21024648466F
:101BE00017F04CF814490CA80D9F18F00CFD0CA828
:101BF000FFF762FE022803D148460CA9FFF7B0FEAA
:101C00000D9724B14A463146204617F037F8002098
:101C10000CF0D4FA62E748460CA9FFF7A1FEF0E702
:101C2000C05E002078970710308E002018E906105B
:101C3000109A0710B1170010B63D0710DC8D002078
:101C4000036A1B8B012B1EBFC3685B18C360704700
:101C500010B50446836A406A9B6F9847238B226ABB
:101C60000133918C9BB29942238338BF938410BD7A
:101C700010B50446038B013B0383836A406AD3F8A3
:101C8000843098472046BDE810400121FFF7D8BFB7
:101C90002DE9F04F85B004460D46984603921BB1DE
:101CA000CB8A43F00803CB82039BEB83236ADA8A57
:101CB00042F03002DA821B78002B46D1A36A294613
:101CC000D3F8B4604346B446039A606A05B0BDE8F1
:101CD000F04F6047DB6A03EBC60B13F83630053B69
:101CE000012B1DD84FF0000917E0EB6A03EBC90286
:101CF00013F83930062B0ED1DBF8041053689942E3
:101D000009D1A36ABBF802201B69606A1F46002341
:101D1000B8470AF1010A09F101092B8D4B45E4DCB2
:101D20000136236A1A8DB242D4DCBAF1000FC5D055
:101D3000A36ACDF80080D3F8B86052462946039BC9
:101D4000606AB04705B0BDE8F08F0026B246E8E70C
:101D500010B50446836A0021D3F88830406A98475A
:101D6000A36A606A0F211B6B9847A36A606A01210E
:101D7000D3F8CC3098472046BDE810400321FFF748
:101D80005FBF38B50446836A00225B6C406A98479F
:101D9000A36A606AD3F8C05000231A461946A847C0
:101DA0002046BDE83840FFF7D3BF836A8968002228
:101DB0001B6D406A09091847836A8968DB6B406AB2
:101DC000184710B50446084611461A4617F012FE89
:101DD000236A436000238360E3690BB9E06110BDAF
:101DE0001A469B68002BFBD19060F8E72DE9F04F75
:101DF00087B005460C4600AF11B90121116013E010
:101E000011F0030619D10B79682B19D1CB681B0986
:101E100013608C68002CF0D0012604F00F03022B15
:101E20000DD12109002EE9D0AB6A0022DB6A686A75
:101E300098471C37BD46BDE8F08F0026EDE716B980
:101E4000A3681B091360A04658F8043FC1464FEA37
:101E5000132A08EB8A030AF1FF3BBB6059F8040F11
:101E6000000915F0A4FFBB6883449945F6D10BF136
:101E7000070323F00703ADEB030DE9460023C7F882
:101E80000CD058F8040F07F1140100093B6015F05D
:101E9000A5FF7A69014648467A606CF037FA3B68DC
:101EA0007A6801339A454A4405D091464FF02E0294
:101EB00009F8012BE5E75946F86815F0B1FEAB6A61
:101EC00001460022DB6A686A9847002EB1D00834C8
:101ED000BB689C42ADD054F8041FAB6A00221B6D56
:101EE000686A09099847F3E731B1826801F0030392
:101EF000134304BF0B68836070472DE9F041074628
:101F00001E4659B111F0030510D14B68D8B290426A
:101F10000CD14FEA13280C1D454501DBBDE8F081CB
:101F2000384654F8041FB0470135F5E738463346C4
:101F3000BDE8F04118470000F8B50E4611461A46B4
:101F40000023044685780769837003610E4BFFF711
:101F5000D4FF6368BBB9618A51B1228A42B9A36ACE
:101F6000606AD3F8A0309847A36A606A1B6C9847F0
:101F700031462046238A628AFFF78AFE003D18BF59
:101F800001252761A570F8BDE927001070B54378D9
:101F90000546012B0C4606D1036A0A461B8B02211B
:101FA000FFF70FFF20612846A26821694C23BDE896
:101FB0007040FFF7C1BF70B5134642780546012A4D
:101FC0000C4604D10A460721FFF7FBFEA061A66973
:101FD000284646233146E268FFF7AEFFB08A70BD5F
:101FE0009D22024B8968FFF788BF00BFF52C0010C7
:101FF0006B22024B8968FFF780BF00BF8D4800103D
:1020000038B543680D46044611464BB905480EF0F5
:1020100083FA294660602046BDE83840FFF764BF78
:1020200038BD00BFCC980710014AFFF7E9BF00BFD9
:1020300028E906100B7970B5092B4FF6FF730CBF1A
:10204000858AC58A04469D4202D1064AFFF7D8FF19
:10205000218B628BA36A606A8A1A5B6F2946BDE88E
:102060007040184735E9061038B5054679B101F0DA
:102070000F03022B0DD10C0920460CF049F8002863
:1020800006DA2246054906480EF0DCFA68600020B0
:1020900038BD044AFFF7B4FFF9E700BF4EE9061068
:1020A0006098071053E9061070B5144605460E46B1
:1020B000127883B132B1032A04D0104ABDE87040CF
:1020C000FFF79EBF032626706168286A17F0F1FCAF
:1020D00000B1067070BD62B9012323702146006A09
:1020E00017F0EEFC2378012BF4D131462846044A40
:1020F000E4E7062AEED0034AE0E700BF5AE90610FB
:1021000067E9061074E906102DE9F34143780446A7
:10211000012B0D461AD10B79102B0CBF4FF0010883
:102120004FF0000808D0036A1B782BB9114A02B09F
:10213000BDE8F041FFF764BF6D2101AA05F1080079
:102140006CF0F2F900260746B74202D102B0BDE8B2
:10215000F081019B002253F82610206A090917F02C
:1021600087FC4346024629462046FFF79DFF01367D
:10217000EAE700BF7BE9061042780B46012A02D14C
:10218000006A03F005BB816A026A2031406A03F0ED
:102190000EBB42780B46012A02D1006A17F068BCD8
:1021A000816A026A1031406A03F001BB70B50546CE
:1021B0000C4600292ED0CA0706D5836A49105B6BEE
:1021C000686ABDE8704018478B0717D004F00F0409
:1021D000022C4FEA11110AD0062C0CD0052919D077
:1021E000BDE87040836AC9B21B6B406A1847BDE8FE
:1021F0007040FFF7CEBF836A9B6BE1E7836A096893
:10220000DB68406A98472279034B2146284653F8F9
:102210002230D6E770BD00BFC07E07102DE9F74F12
:1022200005460C4616461F4620466CF06DF940B137
:102230006EB93946AB6A9B6E686A03B0BDE8F04F71
:10224000184720466CF03CF920B1002EF1D103B0C4
:10225000BDE8F08F002C48D0A30746D163684FEA51
:10226000132BDBB21E2B18D1DEB1043404EB8B0B25
:102270005C45ECD03B463246284654F8041FFFF735
:10228000CDFFF5E7434628465AF8041F019209F1AD
:102290000109FFF7C3FF019A11E01F2B1FD1002E88
:1022A000E3D04FF00009D5F80C8004F1040A08F1DE
:1022B0000103EB600BF1FF33009386F00102009BFA
:1022C0004B45DFDC0BF101013B4654F8211032464F
:1022D0002846FFF7A3FFAB6A41469B6AACE7202B79
:1022E00003D1A46886F001069EE721462846FFF741
:1022F0005DFF3A463146AB6A686ADB6E03B0BDE803
:10230000F04F184738B5026A044612780B46072A80
:1023100006D0022A04D0BDE83840144AFFF770BE48
:102320009D6885B9A36A0F211B6B606A9847A36AF1
:10233000606A0021D3F8CC3098472046BDE8384089
:102340000121FFF77DBCAB070BD12B79AF2B08D157
:102350002046A968FFF72AFF2046BDE83840FFF76E
:10236000F7BC29462046FFF721FFE0E78DE906107C
:1023700070B543780446012B1546CE6806D1036A32
:102380000A461B8B2946FFF71CFD7061002320467F
:102390001A467169FFF77CFC2046F168FFF706FFDB
:1023A000062D05D1A36A0021D3F88830606A9847CA
:1023B000A36A606AD3F8BC500023AC46BDE8704005
:1023C0001A460121604738B505460C46C968FFF733
:1023D000EDFE2846A168BDE83840FFF7E7BE0B795F
:1023E00070B5342B04460D4610D18968FFF7DEFE28
:1023F000ED68AD6885B9A36A0F211B6B606A9847C9
:10240000A36A04220221D3F8A0301AE0836A0F21C4
:102410001B6B406A9847ECE7AB071FD12B799A2BCF
:1024200013D1A36A0F211B6B606A9847A968002922
:10243000E6D02046FFF7BAFE04220321A36AD3F8B0
:10244000A030606ABDE8704018479B2B06D1A96890
:102450002046FFF7ABFEEB689968E8E7294620467F
:10246000FFF7A4FECCE710B504468968FFF79EFE8F
:10247000A36A606A0021BDE81040DB6C18470000C9
:102480002DE9F7438D68044616465DB9002A75D0DC
:1024900002222946836AD3F8A030606A03B0BDE8FF
:1024A000F043184715F0030740F08A802B79372B4B
:1024B00013D132B1836A02220121D3F8A030406ADD
:1024C000984720462946FFF771FEA36A606AD3F851
:1024D000A43003B0BDE8F04318479F2B70D1EB68E0
:1024E0001A79A12A5AD1A22101AA03F108006CF09D
:1024F0001BF8A968804621B38B0722D10B79372BB3
:102500001FD136B1A36A411C0222D3F8A030606A01
:1025100098472046A968FFF749FEA36A606AD3F886
:10252000A43098474FF00109474510D1B9F1000F89
:1025300024D1A36A0322D3F8A030606A791C98479B
:102540001CE02046FFF732FE4FF00009ECE7019B4C
:1025500053F82710A9B18E0713D10E79A6F13700D1
:10256000464246412046FFF721FEB9F1000F11D047
:102570004EB9184A29462046FFF742FD03B0BDE890
:10258000F0830026EEE7A36A606AD3F8A430984788
:102590000137C9E7002EFBD00F4AEBE7AB685BB110
:1025A0009A0709D11B79372B06D10422294603B09B
:1025B000BDE8F043FFF7DCBE052229462046F6E7DA
:1025C00029462046FFF7F2FDA36A03220121D3F832
:1025D000A03062E798E90610A6E906100122FFF78D
:1025E0004FBF70B50D460446C968FFF7DFFDA96807
:1025F000A36AC1F30711332918BF3F39606A08BFC6
:102600000221BDE87040D3F8983018BFC9B218470E
:10261000F8B54F680C46896805460026FFF7C6FDE9
:102620003F0A0C340236B74204F1080400DCF8BD5E
:10263000284654F8041CFFF7B9FD54F8081CAB6A8F
:1026400009092439D3F89C30686AC9B29847E9E788
:102650002DE9F0410C464E6854F8081F0546012745
:10266000FFF7A4FDA6F10D085FFA88F8360AB74215
:1026700001DBBDE8F081284654F8041FFFF796FD02
:10268000AB6A4146D3F89C30686A98470137EEE759
:102690002DE9F04104464E680D46360A8968FFF779
:1026A00085FD032E98BF4FF000084FF0010782BF51
:1026B000D4F80C8008F10103E3607B1C9E4222DC0D
:1026C000032E55D9E568606A6B1CE360A36A29464E
:1026D0009B6E9847A36A4146606A9B6A9847A36AC3
:1026E0000121606A9B689847A36A606A1B6E9847DD
:1026F000A36A606ADB6D9847A36A2946606A9B6A91
:10270000BDE8F0411847204629690237FFF74EFD22
:10271000B74207DAA36A606A5B6D9847A36A606A8A
:102720005B6E9847EB68A26A03F00F010A29D2F8A2
:102730009C20606A11D1C3F30713252B0EBF06211D
:10274000343BD9B29047B74205DAA36A424600212A
:102750001B6F606A98470835AFE71979852901D161
:102760003221EFE79B680BB90721EBE73321E9E75B
:10277000BDE8F08110B504468968FFF717FDA36A2C
:10278000606A0321BDE81040D3F8983018472DE95E
:10279000F0470D460446002755F8046FD0F80C802A
:1027A0005FFA86F9A9F11E03D3F1000949EB030989
:1027B00008F10103C360360AB74206DBA36A41464B
:1027C000606A9B6ABDE8F0471847204655F8041F29
:1027D0000137FFF7EBFCB742F0DAA36A42464946FD
:1027E0001B6F606A9847E7E701F00F03022B70B593
:1027F000044612D00B79492B09D0483B082B18D836
:10280000DFE803F00817071717171705070001235C
:10281000A37070BD8E680D6975B9A378002BF8D1CF
:10282000638A002BF5D02046BDE870401C4AFFF7B4
:10283000E7BBD1E90265EFE7A3783BB3238A013315
:102840009BB2012B23820ED1D4E90903618AD1B155
:102850000022D3F8A0309847A36A02220021D3F8BF
:10286000A030606A984729462046FFF79FFCA36A7C
:10287000606A9B6B31099847A36A606AD3F8A430F9
:10288000BDE8704018471B6C9847E5E7638A294606
:10289000013320466382BDE87040FFF787BC00BF6C
:1028A000B3E906102DE9F04104460E46C568D1F89B
:1028B0000C80AB1C0022D8F80810C3602B46FFF731
:1028C000ADFC2046B168FFF771FCA36A6F1C394666
:1028D000606A9B6E9847A36A2946606A9B6A98471C
:1028E000A36A606A9B684FF0FF3198472046D8F88A
:1028F0000C10FFF75BFCA36A3946606A9B6ABDE86F
:10290000F04118472DE9F047C668D0F814A0B31C71
:10291000C360038B06F10108B0F81A900446868262
:10292000A0F81680438388680D466BF0EDFDF8B97A
:10293000E768A8687B1CE3606BF0C2FD20B9A36A5E
:1029400041469B6E606A9847A36A39469B6A606AF3
:1029500098472046E968FFF729FCA36A41469B6A2D
:10296000606A98473B4601222046A968FFF756FC5B
:1029700020462969C4F814A0A4F81A90FFF716FCA1
:10298000A36A3146606A9B6ABDE8F04718472DE9A3
:10299000F347C6680446731CC36088680D466BF035
:1029A000B3FD0246E8B9E76820467B1CA968E360EE
:1029B0003B46FFF733FC2046E968FFF7F7FBA868C2
:1029C0006BF07EFDD8B92B690BB96B6923B1A36A93
:1029D00031469B6E606A9847A36A39469B6A606A73
:1029E0009847712101AA05F110006BF09DFD0027A9
:1029F00081464F450BD120466969FFF7D7FBA36A93
:102A000031469B6A606A984702B0BDE8F087019B37
:102A100053F82780D8F808006BF076FD024600BB1B
:102A2000D4F80CA020460AF10103D8F80810E3609E
:102A30005346FFF7F3FB2046D8F80C10FFF7B6FB20
:102A4000D8F808006BF03CFDD4E909230028D6D162
:102A5000314610469B6E9847A36A51469B6A606A4E
:102A600098470137C5E70000184B2DE9F041D3F82E
:102A7000587204460D463FBBC6680122731CC360F2
:102A800089683346FFF7CAFBA36A1F2101225B69ED
:102A9000606A9847E96851B12046FFF787FBA36A4F
:102AA0003A46D3F8BC5001213B46606AA847A36A66
:102AB000606A0121D3F8C8309847A36A3146606A3A
:102AC0009B6ABDE8F0411847BDE8F081DC8D00202D
:102AD00070B58D6804463DB92946836AD3F8C8307D
:102AE000606ABDE870401847AB070ED12B795E2BAA
:102AF0000BD1A968FFF75AFBE9682046FFF756FBA0
:102B0000A36A0221D3F8C830EAE729462046FFF736
:102B10004DFBA36A0121D3F8C830E1E710B50446A4
:102B20008968FFF743FBA36A606ADB6DBDE810406C
:102B3000184700002DE9F041026A04461278072A7E
:102B400004D0BDE8F0411A4AFFF75ABA8D685DB962
:102B5000836A0F211B6B406A9847A36A606AD3F8A7
:102B6000C430BDE8F041184715F003021DD12B79A0
:102B70001B2B1AD1C668EF68731CC360B968334653
:102B8000FFF74CFBA9682046FFF710FBA36A606AB9
:102B9000D3F8C4309847A36A31469B6A606A984765
:102BA000F9682046FFF702FBD7E72946F9E700BF9F
:102BB000D1E906102DE9F0410C46054654F8046FA2
:102BC000360A04EB8607BC4208D1AB6A3146686A14
:102BD0000022BDE8F041D3F8A0301847284654F849
:102BE000041FFFF7E3FAEEE78968034610B441B922
:102BF000826A406AD2F8A0400A4623465DF8044B38
:102C000018474A68120A022A0BD1CA684AB19407C7
:102C100007D11279AC2A04D106225DF8044BFFF7E4
:102C2000A7BB18465DF8044BFFF7C4BF2DE9F04180
:102C30000E4605460F46002456F8043F4FEA132877
:102C4000444501DBBDE8F081284656F8041FFFF734
:102C5000ADFA6B683BB10234284657F82410BDE842
:102C6000F041FFF741B90134EAE710B50446FFF738
:102C7000DDFFA36A606A2221BDE81040D3F89C30D2
:102C8000184770B58D68044645B901222946836A04
:102C9000D3F8A030606ABDE870401847A9071ED17C
:102CA0006B68DAB2922A1AD11B0A022B0CD1EB689C
:102CB00053B19A0708D11B79AC2B05D12946BDE841
:102CC00070400322FFF754BB29462046FFF7AEFFB2
:102CD0006968A36A0122D3F8A030090ADAE7294615
:102CE0002046FFF763FA0122A36A1146D3F8A03009
:102CF000D0E7000001F00F03022B2DE9F047054655
:102D00000C4604D1BDE8F0470909FFF735BA0029A0
:102D100055D011F0030652D10B792C2B38D189688C
:102D2000FFF744FAE668002E49D016F0030846D1B2
:102D300077683346FAB28E2A09D13F0A06F10409B0
:102D400007F1FF3AC24510DC013756F827301A79EF
:102D5000312A12D128469968FFF728FAAB6A686AC7
:102D60000221BDE8F047DB6C1847284659F8041FDC
:102D7000FFF71CFA08F10108E4E7322A1FD199682D
:102D8000AB6A686A0222BDE8F0471B6D0909184763
:102D90002D2B14D18C6894B163681B0A022B06D0CA
:102DA000271D6368B6EB132F10D3BDE8F087E368E7
:102DB000002BF5D09A07F3D11B79AC2BF0D121462B
:102DC0002846BDE8F047054AFFF71AB9284657F8E4
:102DD000041FFFF78FFF0136E3E700BFDDE90610B0
:102DE0002DE9F8430446006A1746C68A0D46B20725
:102DF00006D5374A29462046BDE8F843FFF700B913
:102E000001F00F02022A18D1A37809098BB1838B34
:102E1000013383834FF000094FF00108002955D09A
:102E2000002216F025FE03780646002B38D0294AEA
:102E3000E0E7438B01334383ECE70A798946BA42E2
:102E40000BD18968A37809091BB1838B0133838374
:102E5000E2E7438B01334383DEE79A4218D1A3783C
:102E6000002BC6D10122A270896879B301F00F024C
:102E7000022A1CBF8946D9F8081046F0040608BF8C
:102E800099464FF00308C6820CBF09090909C5E736
:102E9000896846F002064FF005080909C682BDE7B9
:102EA000042380F801800370236A1B8B032B0DD150
:102EB000482F0BD1B9F1000F08D02046D9F80C10DB
:102EC000FFF7D2F8737843EA00137370BDE8F88314
:102ED000E7E90610EBE9061049234822FFF780BF17
:102EE0004F234E22FFF77CBF2DE9F04F0E468DB0E9
:102EF000016200214270C16033780446072B1546F9
:102F000005D08B4A0DB0BDE8F04FFFF779B8012A24
:102F100005D0036B021D29461B68C06A9847637879
:102F2000D6F80C80032B10D146210BAA08F10C0017
:102F30006BF0FAFA236B01469B680B9AE06A98479C
:102F400063687083002B40F0BB80D8F81010C1B1CB
:102F500001F00F03022B10D10B09752B3FD006D8BF
:102F60003E2B3ED05E2B0CD02046724ACAE740F280
:102F70006B429342F8D1032304E020466E4AFFF7E8
:102F80003FF802230493D8F81430192109AA08A89D
:102F900008936BF0C9FA4FF000090690069B99451B
:102FA00021D16378012B16D9236B04995B68E06A01
:102FB00098476378042B0ED1049B206AE26A03933E
:102FC000438B052102930023CDE900330069D2E948
:102FD000023202F021FC6368002B71D114E000235F
:102FE000D0E70123CEE7099B4FEA890B53F829105C
:102FF0000B79082B02D109F10109CFE7052B06D087
:103000004E4A2046FEF7FCFF0DB0BDE8F08F8B68FE
:10301000002BF5D09A07F3D1CA68002AF0D11A79AB
:103020002C2AEDD19E6806F00F02022AE8D1D3F8CF
:103030000CA0BAF1000FE3D01AF0030FE0D19AF818
:103040000430302BDCD1A4210AAA0AF108006BF06D
:103050006BFA3609B6F5517F07461BD1012805D119
:103060000A9A136803F00F03022B04D0344A099B19
:1030700053F80B10C5E7E168012D01F10103E3608E
:103080001AD01268236BE06ADB681209984798B976
:103090002C4AECE740F23B239E4215D1012803D194
:1030A0000A9B1968CB0701D4274AE0E7012D03D01A
:1030B000E06A4910FDF7BDF96368002B9BD0D0464C
:1030C000D8F80030A3609FE740F295239E4223D1B9
:1030D000012804D90A9B1A6812F0010601D11B4A83
:1030E000C5E7012DE8D0531007930A9A0BA952F8AF
:1030F00026006BF0DDF908B9154AB8E7E36A0B98CA
:1031000005930EF0CCFC0136024607990598FDF7B1
:1031100097F9B742E9D1CFE7012DCDD0236B024615
:10312000D3F810B031460A9BE06AD847C4E700BF25
:10313000F5E906100BEA06100FEA061017EA06106A
:1031400025EA061031EA061035EA061041EA0610B3
:1031500053EA061042780B46012A02D1006A02F0B7
:1031600017BB816A026A1831406A02F020BB000076
:103170002DE9F14F8F0704460D46164613D001F096
:103180000F03022B18D102F0FD06012E4FEA111198
:1031900004D001B0BDE8F04FFFF7DCBF01B0BDE8DF
:1031A000F04FFEF7F6BF4968CBB22D2B7FD00BD87E
:1031B000062B0ED02C2B13D029462046504A01B0A6
:1031C000BDE8F04FFEF71CBF2E2B00F084809D2B36
:1031D000F2D1002EF0D105F10802090A20467FE065
:1031E000022A02D0A968FEF7E1FFEF68002FE3D0C2
:1031F00017F00309E0D17B68B846DAB28E2A0DD108
:10320000022E4FEA132805D007F1040A08F1FF3B0C
:10321000D94515DB08F1010857F8288098F80430E3
:10322000312B27D1022E13D1A36A606A5B6E9847B7
:103230000121A36ADB6C606A01B0BDE8F04F18475A
:1032400020465AF8041FFEF7B1FF09F10109DFE734
:103250002046D8F80810FEF7A9FFD4E90903012E8B
:1032600005D19B6D9847A36A0021DB6CE3E7012140
:10327000DB6CE1E7322B9FD1D4E90903012E0CD19D
:103280005B6D98470022A36AD8F808101B6D606A2E
:10329000090901B0BDE8F04F1847022E01D11B6E9D
:1032A0009847A36A0122D8F808101B6DEFE7AA68B7
:1032B000002A81D0002E7FF47FAF5168090A0229CD
:1032C00007D1D3682BB1980703D11B79AC2B3FF4FE
:1032D00073AF083282E7002A7FF46EAFA96821B984
:1032E00001B0BDE8F04F00F073B88E0703D10B7941
:1032F0000A46922BE1D0012105F108026EE700BFDA
:103300005EEA06102DE9F04704460D46C7681E46E2
:10331000BB1CC360836A39469B6A406A90469847E3
:10332000A36A07F101094946D3F88C30606A9847CF
:10333000A96800222046FFF71BFF2D6965BB4146A7
:103340002046FEF733FF236A1978D4E909030629DA
:103350001CD1D3F8CC302946984720460121FEF7EE
:103360006FFCA36A606ADB6D9847A36A3946606A9E
:103370009B6E9847A36A606A49469B6A9847A36A0E
:10338000606AD3F89030BDE8F0471847B200D3F830
:10339000A83005329847E8E72B79AD2B07D1A9680B
:1033A0003B4600222046FEF739FFED68C6E720467F
:1033B000E968FEF7FBFEA36A606A0121D3F8883052
:1033C0009847424629462046731CFFF79BFFCCE7EF
:1033D0002DE9F84304460D46904600264FF0FF378E
:1033E00001F1FF39B9F1FF3F0CD17B1C05D1A36A74
:1033F0002946D3F8AC30606A98470026AE421DD10A
:10340000BDE8F88358F8261071B18A070CD10B7902
:10341000222B09D101370BD1A36A4A463146D3F892
:10342000B030606A98473746013609F1FF39D9E76D
:103430002046BDE8F843074AFEF7E2BD58F82610DB
:10344000B7424FF00002204608BF8968FFF790FEA0
:103450000136D3E769EA06102DE9F04704469046A5
:1034600099460F4621B9BDE8F0471946FEF79EBEC2
:10347000C668731CC360156835B315F0030A23D101
:103480002B797B2B20D1A968FEF790FE524631465E
:103490002046FEF7DDFB52462046E968FFF768FE4E
:1034A0004B46204608F10402791EFFF7D5FFA36AB8
:1034B0003146606ADB6F984720460321FEF7C0FB68
:1034C000BDE8F047FEF7D4BB29462046FEF76EFE66
:1034D000204600223146FEF7BBFBA36A606ADB6D23
:1034E0009847DDE737B50C46054601AA7A2104F175
:1034F00008006BF019F8E3680146019A2846FFF7C7
:10350000ABFF03B030BD2DE9F04F8B68044603F0EC
:103510000F03022B0D4689B040F0FF80CB68002BD3
:1035200000F0FB80980740F0F8801A792C2A40F0D0
:10353000F4809A6802F00F01022940F0EE8012092F
:103540007C2A40F0EA80DB681A79302A40F0E58076
:103550009B68A42107AA06A806936AF0E5FF431E0C
:10356000022B00F2DA80079B01281A6800F0C8805D
:10357000022800F0C3809E68F10740F1CE807108F8
:1035800000F0CB80D3F8049032B1930704D11179C5
:10359000A639022940F2C180B9F1000F08D019F014
:1035A000030F05D199F80410A639022940F2B5801D
:1035B000AB686F6901932B69218B02936369E5689E
:1035C0000493638B05F1010B03936183AB1C291DED
:1035D00019F001080593A582A4F816B005F1030AB5
:1035E000E16005D1494620460592FEF7DFFD059AC8
:1035F00011462046FEF7DAFDA26A5146926E606AD5
:103600009047A26AA91C926A606A9047A26A606A9F
:10361000526D9047002220460199FFF7A9FD2046F0
:103620000299FEF7C3FDA26A5946926A606A904702
:1036300031462046FEF7BAFDA26A0E21D2F89C2040
:10364000606A9047A26A606A926A51469047D4E9DC
:103650000902B8F1000F57D1936D9847A36A606AC9
:103660001B6E9847A36A002EACBF00210121D3F83E
:103670009C30606A9847A36A0121DB6E606AAA1CCD
:103680009847049B6361039B6383002F43D0A36A25
:10369000606ADB6D9847B8F1000F03D1A36A606AD6
:1036A000DB6D984739462046FEF780FDE668606A84
:1036B000731CE360A36A31469B6E9847A36A88F047
:1036C00001019B68606A01319847A36A606A9B6A3E
:1036D00029469847A36A606ADB6D9847B8F1000FE6
:1036E00003D1A36A606ADB6D984727B1A36A3146AC
:1036F0009B6A606A984709B0BDE8F08F032641E7EE
:1037000091460326024647E7526D904749462046B8
:10371000FEF74CFDA6E73E46D7E7E668238BB4F8F4
:103720001A9063836FEA46436FEA5343D4F814A0B8
:10373000771CA382F31C2046E968E360E782FEF76A
:1037400035FDA36A606A0121D3F888309847A36ADF
:103750003946606A9B6A9847A36A06F10208D3F863
:103760008C304146606A984700222046A968FFF7DE
:10377000FFFC20462969FEF719FDA36A3946606AF5
:103780009B6E9847A36A4146606A9B6A9847A36A02
:10379000606AD3F89030984720466969C4F814A04D
:1037A000A4F81A90FEF702FD3146A36A606A9B6A8C
:1037B00009B0BDE8F04F18472DE9F74F044617460A
:1037C00098460E4629B9194603B0BDE8F04FFEF7FA
:1037D000EDBCC5682B1DC360136805F1010A05F136
:1037E000020B05F10309002B00F0D28013F0030255
:1037F00040F0CE8019797B2940F0CA809968019207
:103800000093FEF7D3FCA16A606A496D884740F2D5
:103810000D212046FEF7B5FADDE900322046D968D1
:10382000FFF7A6FC022229462046FEF711FAA36AFA
:10383000606A03219B6898473A1D43462046711EE3
:10384000FFF7BAFFA36A606A6FF002019B689847AE
:10385000A36A2A465146D3F88060606A5B46B04747
:10386000A36A606A5B6D9847A36A606A5B6E98475B
:10387000A36A606A1B6E9847A36A002240F20E2179
:10388000606A5B6C9847A36A606A5B6E9847A36A3C
:10389000606A5B6E9847A36A606A5B6D9847A36A2B
:1038A00000220A21606A1B6D9847A36A606A1B6E3A
:1038B0009847A36A606A0F211B6B9847A36A03218C
:1038C000D3F8C0500023606A1A46A8472046FEF786
:1038D0003FFAA36A4A460021606ADB6E9847A36AF2
:1038E000606ADB6D9847A36A606A0F211B6B98477B
:1038F000A36A4946606A9B6E9847A36A606A022180
:103900009B689847A36A5946606A9B6A9847A36A6E
:10391000606A5B6E9847A36A606A5B6E9847A36AA9
:103920005146606A9B6A9847A36A0022606A40F227
:103930000E215B6C9847A36A0F21606A1B6B984746
:10394000A36A606A5B6D9847A36A606A5B6D98477B
:10395000A36A0321D3F8C0500023606A1A46A8471F
:103960002046FEF7F5F9A36A606ADB6D9847A36A03
:10397000606A4FF0FF319B689847A36A606A4946C6
:103980009B6A9847204603B0BDE8F04FFEF770B938
:1039900019462046FEF70AFCA36A606A5B6D9847E9
:1039A000204640F20D21FEF7ECF9A36A606ADB6D58
:1039B000984737E72DE9F041CD6804460E4665BBD0
:1039C0000378C3B1036A1D78ADB940F21B21FEF73D
:1039D000E0FBB1682046FEF7E9FBA36A2A46D3F86C
:1039E000BC6001212B46606AB047A36A606ADB6D48
:1039F000BDE8F0411847B1688B0707D001F00F030D
:103A0000022B08D12046FEF7D1FBEEE70029F9D0C2
:103A10000B793A2BF6D1BDE8F081AF0740F0AF80CB
:103A20006B68DAB25B2A11D1ED68002D4AD1006AC9
:103A30000378072BEFD1896801F00F03022BEAD13D
:103A4000BDE8F0410422D14016F012B8562A13D135
:103A500001228968FFF78CFB2046E968FEF7A6FB88
:103A6000A968A36A09093E39D3F89C30606AC9B2D3
:103A700098470222B1687DE0572A25D11B0A5F1EB4
:103A8000013355F82310FEF791FB002F03DDA36AE5
:103A9000606A5B6D9847B16800222046FFF768FBBB
:103AA00000260435BE42B6DA0136BE4203DAA36A06
:103AB000606A5B6D98470022204655F8041FFFF7A7
:103AC00057FBEFE7A9075AD16B68DAB2062A56D13D
:103AD000B768002F53D0BA0751D17A68D1B20629FE
:103AE0004DD11B0AB3EB122F4FEA122847D1A8F190
:103AF0000203012B43D8BB6823B1980702D11B797D
:103B0000222B3CD0FB6823B1990702D11B79222BD1
:103B100035D0B8F1020F06D03B6923B19A0702D124
:103B20001B79222B2BD02046A968FEF73FFB2046AD
:103B3000E968FEF73BFBB8F1030F07D1204629697E
:103B4000FEF734FBA36A606A5B6E9847A36A606AFB
:103B50001B6E984700222046B968FFF709FB002238
:103B60002046F968FFF704FBB8F1030F7FF453AF69
:103B7000002239692046BDE8F041FFF7F9BA29462D
:103B80002046FEF713FB002274E700000023032AFF
:103B90002DE9F04104460D46164642700162C360AD
:103BA00080F8342002D1C08E50BBA0634FF00008D3
:103BB000A36A31461B68606A2A46A4F83680984793
:103BC00006212046FEF73CF86778EE68012F04BF17
:103BD000A5F82280A5F82480B6B1B20714D13379B4
:103BE0003F2B11D1B168FEF7E1FAA36A606AD3F8FE
:103BF000C4309847A36A606A5B68BDE8F041184723
:103C0000800006F04EF9D0E72B78072B00F2938066
:103C1000DFE803F0049125414141410E3146204641
:103C2000FEF7C4FA0F21A36A606A1B6B9847DCE7B2
:103C3000012F12D10023A3704622574B2046F16872
:103C4000FEF75BF92B8B032B07D120463169FEF77A
:103C50000BFAEB8A43EA8013EB827169DFE7A36A10
:103C60003168DB68606A98476378012B07D10023CD
:103C7000A3704C222046494BB168FEF73EF920461E
:103C8000F168FEF793FAEB8ADB07AED5A36A606AA8
:103C9000DB6D9847C6E7012FD6F80C8005D10422CA
:103CA0003946206A15F0E4FE6F83A36A3168DB6849
:103CB000606A98472B78032B24D10122A36AD3F89A
:103CC000A0300021606A98472B78062B28D1A36A80
:103CD000606A1B6C984701212046FEF75AFAA36AD6
:103CE000606A1B6C9847A36A606A1B6C9847002344
:103CF00041462046B268FFF705FB2B78062B7FF480
:103D000074AF8FE7042B04D1A36A0222D3F8A0304A
:103D1000D7E7052BD8D1A36A0322D3F8A030D0E788
:103D200020460121FEF735FAA36A0121D3F8883035
:103D3000606A9847DBE7012F04D104220A21284654
:103D400015F096FE17212046FEF723FA162120468D
:103D5000FFF700FAB168A36A606A9B6B090998478C
:103D60001A212046FFF7F6F920463169FEF71EFAC0
:103D70000A21284615F06CFE0246D4E909031178A1
:103D8000042902D10F211B6B50E71D690A21002372
:103D90005288A84729E700BFD92E0010E12E001055
:103DA000036A10B51A8B0446FEF705F90146204652
:103DB000BDE81040FFF7CEB92DE9F04F8D680446FD
:103DC0002B7985B0032B0AD12946FFF7E9FFAA69B1
:103DD000D38A43F00103D38205B0BDE8F08F026AB5
:103DE000D28AD20706D42946614A05B0BDE8F04F11
:103DF000FEF706B9162B40F0AD80C668E968331DA2
:103E0000C360FEF7D3F9A36A606A002240F20F2173
:103E10005B6C9847A36A606AD3F8C07000231A46A7
:103E20001946B8476369E7680093638B07F1010897
:103E30000193BB1CE360238B41466383A36A606AE2
:103E40009B6A06F1010BA782A4F81680984701220D
:103E500059462046FDF7FCFEA36A606A5B6D9847F1
:103E6000204640F21121FDF78CFF2046A968002270
:103E7000FFF77EF9A36A06F1020900224946606A4B
:103E8000D3F894309847A36A5946606A9B6A98476A
:103E9000A36A606AD3F8D0309847A36A606A5B6D02
:103EA0009847A36A0122606A40F2EB115B69984768
:103EB000A36A606A0821D3F89C309847A36A06F188
:103EC000030A52460021606ADB6E9847A36A606A63
:103ED000DB6D9847A36A01223146606AD3F89430BB
:103EE0009847A36A5146606A9B6A9847A36A012172
:103EF0009B68606A98472046FDF7BAFEA36A606A2D
:103F0000D3F8D4309847A36A49469B6A606A9847B9
:103F100020462969FEF74AF9A36A4146606A9B6E0A
:103F20009847009B31466361019B606A6383A36A83
:103F30009B6A984720466969FEF738F9A36A606A68
:103F400039469B6A9847A36A606ADB6D05B0BDE895
:103F5000F04F184703AA7A2105F108006AF0E4FA45
:103F6000EB680146039A2046FFF726FC34E700BFC2
:103F700070EA06102DE9F04F0F46044685B0C5687B
:103F80001E460E9B294603936B1C0293AB1CC36019
:103F900093460122FDF75CFE394600272046FEF7D6
:103FA00005F9A36A0022D3F89430606A691C984727
:103FB000A36A29469B6A606A9847A36A606AD3F835
:103FC000D0309847D4F80C9009F10103E3605F45C5
:103FD00018DB2046FDF74CFEA36A606AD3F8D430A4
:103FE0009847A36A02999B6A606A9847204603999A
:103FF000FEF7DCF84946A36A606A9B6A05B0BDE833
:10400000F04F18473346D4F80CA01A6804360192D2
:104010000AF10102E260019A0137D2F80880B8F192
:10402000000F4FD1BB4542D10025A36A606ADB6D0A
:104030009847A846019B2046D968FEF7B7F825B3F4
:10404000A36A0F211B6B606A9847A36A41469B6A6B
:10405000606A9847A36A01219B68606A9847A36ACF
:104060000F211B6B606A984729462046FFF772F8BC
:1040700029462046FEF780F8A36A606A4FF0FF31B8
:104080009B6898472046FDF7F3FDA36A0122494645
:10409000606AD3F894309847A36A5146606A9B6A75
:1040A0009847A36A01219B68606A98478FE720467A
:1040B0001E4A1968FDF7A4FF204605B0BDE8F04F81
:1040C000FDF7D6BD18F003052DD198F8042043461E
:1040D000762A03D1DD68D8F808802D09A36A606AC2
:1040E0005B6D984741462046FEF760F8A36A0821B9
:1040F000D3F89C30606A9847A36A52460021DB6E71
:10410000606A9847002D8FD029462046FFF722F895
:10411000D4F80C80022208F1010341462046E360F6
:10412000FDF796FD86E70025D8E700BF87EA061071
:104130002DE9F3471646DDE90AA9C76898467B1CB6
:104140000D4602223946C3600446FDF781FD002E6C
:104150002DD1A36A03219B68606A984729462046AF
:10416000FEF724F8A36A6FF002019B68606A984723
:10417000A36A606A0F211B6B9847A36A3946606A7D
:104180009B6A9847A36A606A9B68012198474946E1
:104190002046FEF70BF8A36A606A4FF0FF319B6878
:1041A0009847204602B0BDE8F047FDF761BD4346A1
:1041B000324629462046CDF800A0FFF7DBFED7E7C0
:1041C000F0B5CE68054633790C46782B85B009D119
:1041D000B368019300231A4600938968FFF7A8FF8C
:1041E00005B0F0BD742B4FF0770103AA13D106F18F
:1041F00008006AF099F937690246A168039BF068E4
:1042000027B900902846FFF7B5FEE9E7BC68CDE97D
:1042100000042846E2E704F10C006AF085F9002367
:1042200000930246039BA168ECE7000001F00F0336
:10423000022B70B504460D46164602D01E4AFDF705
:10424000DFFE31462046FDF7B1FFA36A606A5B6D71
:10425000984763782E09012B10D1226A1378033B0B
:10426000032B0BD85068314601F092FA03461A78B6
:10427000206A032A08D1314615F0FAFB3146204660
:10428000BDE87040FEF766BF0022314615F0F0FB36
:10429000236A02465B685B68002B0CBF0123002386
:1042A00004D00178012904BF00210170294620466D
:1042B000FDF7FAFEE2E700BF5EEA06102DE9F04FD7
:1042C000002687B0CDE902210446A42105AA03A84F
:1042D0001D466AF029F9B1463746B0464FF0010B4A
:1042E0000190019B9E4211D127B1A36A49465B6BA5
:1042F000606A9847D4E90903029A002A76D0D3F875
:10430000C0403B4642462946A04713E0059B53F870
:1043100026A0BAF1000F5BD01AF0030F58D19AF81B
:104320000420A62A1AD1B80707D5324A514620469A
:10433000FDF766FE07B0BDE8F08F1D2E01D92E4AAD
:10434000F4E70BFA06F22046DAF8081049EA020907
:104350000127FDF72BFF01350136C2E7A72A0DD152
:10436000A26A606A126C9047DAF8081047F00207F8
:104370002046FDF71BFF08F10108EDE7A82A27D129
:10438000DAF80C2072B191070CD11179AA2907D162
:1043900020469268DAF80810FFF748FF0135DBE79E
:1043A000AC290FD0DAF8081001F00F02022A01D070
:1043B000124ABBE7A26A0909926B606A9047DAF871
:1043C0000C10D5E7062251462046FDF7D1FFE5E760
:1043D000BB0701D50A4AA9E7B8F1000F01D0094A85
:1043E000A4E751462046FDF7E1FED7E7D3F8BC40ED
:1043F00087E700BF9FEA0610A6EA0610AEEA06109D
:10440000BBEA0610C2EA061070B50D4641780446B4
:104410000129134603D12A46FDF7D3FC6861A36A3C
:10442000606A9B6C984700236E691A4631462046A5
:10443000FDF72EFCA36AB18A9B6B606A9847E96816
:1044400029B18B0703D10B79A32B08BF002120468C
:1044500002230022FFF732FFB08A70BD0023896873
:104460001A46FFF72BBF00002DE9F8430C46896878
:104470000546FDF79BFEE668002E56D07768296A50
:10448000FBB209788E2BA36819BF012704F10C0633
:104490003F0A0836072903F00F024AD1022A46D103
:1044A0001A099A2A47D133681A79302A3FD19B6872
:1044B000002B3CD10A212846FDF76BFE2A6AD36AFD
:1044C000128D32B9284631683F4ABDE8F843FDF7FE
:1044D00097BD5978C9070FD528465968FDF759FE89
:1044E000D5E90903022F0AD8D3F8BC4000230221E2
:1044F0001A46A047012416E0013A0833E1E7726842
:1045000011793229F0D1B46821793029ECD1916840
:104510005B6C012209099847A16800230122284603
:10452000FFF7CCFE0324A74226D8BDE8F883002479
:10453000F9E7022AFBD140F2AF12B2EB131FF6D11A
:1045400033681A79302AF2D19B68002BEFD013F030
:104550000304ECD11B792F2BE5D1AB6A224621460F
:10456000D3F8BC80686A2346C04733682246284691
:104570009968FDF785FFBDE704F10108B84556F8D5
:1045800024104FEA84031AD20A79322A17D133440D
:10459000D3F8049099F80430302B10D18968AB6AB5
:1045A00000225B6C686A09099847002301222846AB
:1045B000D9F80810FFF782FE08F10104B3E7284696
:1045C000FDF7F4FDA046F7E7C9EA061010B5026A48
:1045D000044612780B46072A06D0022A04D0BDE80A
:1045E0001040064AFDF70CBD20461946FFF73CFF78
:1045F0002046BDE81040FDF7ABBB00BFDCEA06106B
:10460000D1E90212FFF712BE036A10B51A8B0446F5
:10461000FFF7FAFE01462046BDE81040FEF79ABDBE
:104620002DE9F04F884685B00446422102AA08F1E0
:10463000080069F079FF00278346BA46236A1E8B7B
:104640005F450AD1D8F80C100B79032B51D13246B3
:104650002046FDF7B0FC054659E0029B6C2153F85B
:10466000273003AA03F10800019369F05DFF039B63
:10467000054619680A09732A0DD02046FDF796FDF4
:104680004FF00109A94528D3019BD96869B120469B
:10469000FDF78CFD09E0022809D02046294AFDF7E4
:1046A000AFFC35462E460AF1010A0137C8E75968C2
:1046B0000B09412B0DD040F28A329342F2D040F2E6
:1046C0008242934207D040F249229342E5D1042529
:1046D000E8E70125E6E70325E4E7039B002253F81A
:1046E0002910A36A606A1B6D0909984709F101093D
:1046F000C8E7442B17D18F68324639462046FDF76C
:104700005AFC0546BA69D38A43F00103D3820027D5
:10471000ABEB0A0ABA450BD829462046FEF71AFD2C
:1047200005B0BDE8F08F32462046FFF76DFE92E7F8
:10473000A36A0121D3F8BC600023606A1A46B0471F
:104740000137E7E7E7EA06102DE9F3418D680446F3
:1047500005F00F030A2B0E4607D0002D31D015F0BF
:1047600003012ED12B79652B1ED1009500256521E3
:1047700001AA684669F0D8FE002140F2CA52019BA6
:1047800003EB8000834215D140F21A43F2689A424B
:1047900037D1236A1F78B7B1314620463A4A02B072
:1047A000BDE8F041FDF72CBC622BEDD1AB68009366
:1047B000ED68DCE753F8047B97420CBF013103310D
:1047C000E0E70021E0E7A36A606A5B6B9847A36AB1
:1047D000606A05219B6B9847A36A3A46D3F8A030DC
:1047E000606A012198472946204601AAFDF7FEFA92
:1047F00002223946A36A606ADB6A02B0BDE8F04172
:104800001847A36A606A5B6B984706F10C006A461A
:104810006A2169F089FE00270646D4E90903B742F8
:1048200013D100223146D3F8A030984729462046BC
:1048300001AAFDF7DBFA0025D4E90903B5420DD141
:10484000DB6D984702B0BDE8F081009A9B6B52F88F
:1048500027200137916809099847DEE7009ADB6A4B
:1048600052F825800122D8F808703F093946984748
:10487000D8F80C1029B939462046FEF76BFC0135F3
:10488000DAE70909F8E700BFFFEA061037B5044682
:104890000D46836A00215B6B406A9847A36A606A91
:1048A0001B6B0F2198472946204601AAFDF79EFA67
:1048B0002046019903B0BDE83040FEF74BBC000034
:1048C0002DE9F04F9BB0CDE902011020144605F010
:1048D000CFFA4FF050431A689D4B002153F8223015
:1048E00006461B695822436004A868F073FF4FF026
:1048F000FF33012113A809938DF8104005F020FB28
:10490000039B0122D90041F0020113A805F056FBD8
:1049100001230021436016A80DF020FC029A8D4B64
:10492000002193F85C32126804A8FDF74AFA0546A4
:1049300011A800F08BFE4FF0000B874B0B9F0190EE
:104940000D900E930FB1059C1CB30B9C14B1059BED
:10495000002B3DD000275946019800F07EFEDFF87D
:10496000F8910B9CDFF8F4A1DDF81480002C00F026
:104970003B81B8F1000F00F0F3800C9C04A8E168C3
:10498000FDF7B2FA4046A38A069A03990BF0A6FEF9
:104990002EE13B8B0122042B394604A807D1FEF7F8
:1049A000A3FA079BBF689B4538BF9B46CAE7FFF742
:1049B000EDF83B8D9C42F4D2FB6A03EBC40113F883
:1049C0003430012B02D1384615F07AF80134F0E783
:1049D000E28A520716D5218D013913D3E76A4FEACF
:1049E000C10E07EBC102507810F0020F25D04BB179
:1049F000D3E9008C92E8030083E8030047F80E80B7
:104A0000C2F804C04FF0000300272384B4F828C084
:104A1000674518DB00239C454ED1D4F804E0BEF175
:104A2000000F08D000200346BEF828A0504553DBF5
:104A3000002B40F08A80A46888E7002BCCD10128A5
:104A400008BF1346C8E72378D4F82C80012B4FEA1F
:104A5000C70A08EBC70905D1D9F804300A2B12D1CF
:104A60000137D3E718F837300DD9012B0BD14FF0B0
:104A7000030308F83730238B032B16D0E38A43F067
:104A80001003E38203E018F80A30032BF3D018F880
:104A90000A30042B03D099F80130DB07E0D5238CD2
:104AA0005A1C2284A9F80230DAE7D9F8040009F088
:104AB0002FFB0128EBDCE1E7E26A02EBC30112F80D
:104AC0003320052A06D14A78D7075FBF228C4A8057
:104AD0000132228401339EE7DEF82C2002EBC0096C
:104AE00012F83020053A012A14D8002710E0E26AB3
:104AF00002EBC70812F83720062A08D1D9F80410AB
:104B0000D8F80420914204BFA8F8023001330137DD
:104B1000BC45ECD1013089E7E06A00EBC20110F836
:104B20003200062802D14878C00702D548881844C8
:104B3000488001329445EFD1628B12FA83F262838E
:104B4000228C12FA83F3238475E70022F2E700BF78
:104B5000C05E0020DC8D0020AC7F0710B481071000
:104B6000238B042B17D10F9B1BB9584601F03AFD3C
:104B70000F9000230D934B4B0322214604A8109362
:104B8000FEF7B2F9059B23B90422214604A8FEF7DB
:104B9000ABF9A468E8E6023B012B21D837B95B46A4
:104BA00007AA05A911A804F06BF90746CDE90D7A0B
:104BB0000222214604A8FEF7E9FF059B002BE8D15D
:104BC0000322214604A8FEF7E1FF059B002BE0D15C
:104BD0000422214604A8FEF7D9FF0028F8D0D8E720
:104BE000019BCDE90D39E3E7B8F1000F7FF4C5AEC5
:104BF000DDF81490D5F81080B9F1000F16D00198A7
:104C000000F033FD002F41D10F9808B101F0FFFCF7
:104C1000029869F045FC2846AD6814F00FFF002D9E
:104C2000F9D10598002835D009F004FB139C189899
:104C3000C4F3DC046400033400EB9400800005F04E
:104C400017F924F003040444F460DDE91441B06072
:104C500001F1040CA1450BD10023189A9342CED048
:104C6000199951F82300F16841F823000133F5E761
:104C700051F839303BB1042B1FBF5CF83920DB08F9
:104C8000521020F8123009F10109E3E7384604F028
:104C900019F9B9E72A46314640461BB0BDE8F04F46
:104CA00000F0CCBD848007104FF050431A68044BCD
:104CB00082B053F82230186801ABC01A02B07047B6
:104CC000C05E002008B5FFF7EFFF4FF050431A68B1
:104CD000044B53F822305B68984201D314F04CFD2A
:104CE00008BD00BFC05E00204379012B07D0836858
:104CF0001944036981605A8C9142C8BF5984704736
:104D0000002383714379012B1EBFC26A036A43F8F3
:104D1000212070476FF00301FFF7E6BF0421FFF782
:104D2000E3BF6FF00201FFF7DFBF0346426A40793D
:104D3000114403288ABF586B18468018596270477F
:104D4000827903460AB118467047C26A4079114415
:104D5000032801D8D962F6E7986AD9620244586BF1
:104D60001044704710B50C460121FFF7E9FF0470AD
:104D700010BD10B51446FFF7B7FF0121FFF7E0FFA4
:104D8000047010BD53220121FFF7F3BF542201210B
:104D9000FFF7EFBF57220121FFF7EBBF5822022197
:104DA000FFF7E7BF59224FF0FF31FFF7E2BF5A226A
:104DB0000021FFF7DEBF5B220021FFF7DABF5D2293
:104DC0004FF0FF31FFF7D5BF19B103215F22FFF785
:104DD000D0BF5E22FBE7A1F13002D2B20021FFF783
:104DE000C8BF62226FF00101FFF7C3BF10B5632295
:104DF0004FF0FF310446FFF7BCFF0123A37110BD44
:104E000001F1640210B5D2B249420446FFF7B1FF86
:104E10000123A37110BD10B5044601F16702D2B29F
:104E20004942FFF7A6FF2269D38A43F00103D382E8
:104E300010BD000038B504461D46FFF79AFF2A460C
:104E40002046BDE838400149FBF7F6BD414D001052
:104E500070B504460D46C0681946164600F068FC59
:104E60003246034629462046BDE87040FFF7E2BFC0
:104E70000B4610220121FFF7EBBF11320B46D2B2D5
:104E80000121FFF7E5BF20B40B4602F114055100E4
:104E9000C1F10101EAB25DF8045BFFF7D9BF163238
:104EA0000B46D2B24FF0FF31FFF7D2BF19320B469B
:104EB000D2B20021FFF7CCBF70B41D46C46826787B
:104EC0006388042E04BF666846F823505D1C658025
:104ED00070BCFFF7AFBF03F128011346CAB200212F
:104EE000FFF7A8BF022A02F12A020B46D2B20CBF7A
:104EF0000121C1F10101FFF79DBF03290AD0042957
:104F00000AD101210B460A4443EA8203C9432F22F6
:104F1000FFF790BF0021F5E700210223F3E70B46DE
:104F200030220139FFF786BF10B4144641EA02234C
:104F3000214431225DF8044BFFF77CBFF8B51646DB
:104F40001F46FFF7D1FE8479054604BB4379022B47
:104F500025D9C46A036AC4F1FF2453F8273004F545
:104F60007F04FE34442E1C4412D814F1400F14DB8D
:104F70003F2CD4BF00270127E41B2846B91CFFF7AC
:104F8000DFFE06706FB9442E98BF40344470F8BD00
:104F90007F2C94BF00270127EEE70127ECE70127CC
:104FA000EBE76B79442E98BF04F58044042B05D1C0
:104FB000B4F5004F24BF012385F8383064F07F0337
:104FC000E41143708470E2E70B4610B542220021E1
:104FD0000446FFF7B3FF0123A37110BDF8B50546E2
:104FE0000C46164621F40047CAB90B040ED55921C8
:104FF000FFF7B8FE59212846FFF7B4FE592128468D
:10500000FFF7B0FE59212846FFF7ACFE3B4642228F
:1050100000212846FFF792FF0123AB71F8BD3B4604
:1050200040220021FFF78AFF210A21F07F0131434E
:105030002846C9B2FFF796FEEEE70B46B2FA82F1B8
:1050400020B4490902F14705EAB249005DF8045B62
:10505000FFF774BF0B464B220121FFF76FBF0B46D2
:1050600010B54A2200210446FFF768FF0123A3710F
:1050700010BD0000264B2DE9F047D3F85832044606
:10508000022B89460ED88669B1420BD940F2FF77D0
:10509000C56A43698E1BED1A56EA050304D1E36A1B
:1050A000C4E90539BDE8F087062E01D90F2D1AD9BC
:1050B0001F2DAA4628BF4FF01F0A1F2D10D8032E00
:1050C000B04628BF4FF0030801212046FFF72DFE10
:1050D0004AEA48130370A5EB0A05A6EB0806DBE7CE
:1050E0004FF00008F0E7BE42B04628BFB8460221A4
:1050F0002046FFF71AFE4FEA181303F070032B4304
:1051000063F07F03AA46037080F80180E3E700BFE5
:10511000DC8D002010B5044631B955224FF0FF3127
:10512000BDE81040FFF725BE022904D1FFF72AFE93
:105130002046FFF740FE56226FF002012046EFE7BF
:10514000134621B143224FF0FF31FFF7F7BE44224F
:10515000F9E7134621B145224FF0FF31FFF7EEBECC
:105160004622F9E7322938B5044611D0332912D046
:1051700000252939CAB220464FF0FF31FFF7F9FD6B
:1051800065B12046BDE83840D3220021FFF7F1BDCC
:1051900001250621EDE701250721EAE738BD012AAF
:1051A00010B40B46044608D0022A0ED169224FF0F3
:1051B000FF315DF8044BFFF7DCBD11461B32204682
:1051C000D2B25DF8044BFFF743BE4FF0FF31F5E775
:1051D00070B50D46044611462AB92B461322BDE888
:1051E0007040FFF735BE022A04D1FFF7CBFD204601
:1051F000FFF7DDFD2B4618226FF001012046EEE798
:1052000010B4044643B90F2A06D8503A01215DF87C
:10521000044BD2B2FFF7ADBD03F124012046134683
:105220005DF8044BCAB20121FFF704BE10B4044676
:105230004BB90F2A07D8403A4FF0FF315DF8044BC5
:10524000D2B2FFF796BD03F12601204613465DF862
:10525000044BCAB24FF0FF31FFF7ECBD70B4D2B2CD
:10526000DDE9036503EB460443EA062315B1013289
:105270000134D2B2091B70BCFFF7DCBD07B5CDE924
:1052800000230B4634220021FFF7E8FF03B05DF84E
:1052900004FB07B5CDE900230B4636224FF0FF3162
:1052A000FFF7DCFF03B05DF804FB10B50446C068EF
:1052B00000F054FA2322034601212046BDE81040A5
:1052C000FFF7B8BD01F110033F2B73B506460C463E
:1052D00008D8A1F180020121D2B202B0BDE870402D
:1052E000FFF747BD012122220DF10505FFF741FD22
:1052F000294604F07F00E3B2E4112A4605F8010DC7
:10530000601C0128F5D8013403F0400314D11BB907
:105310007F2305F8013C951E491B3046FFF710FD21
:1053200001466A1E01AC12F8013FA24208D11044A6
:10533000401B037002B070BD002BEDD00023E8E7E6
:1053400063F07F0301F8013BEDE770B514460546B5
:10535000D6B2049A134308BF20220B691ABF212238
:10536000E143C4F10101FFF7A7FD31462846BDE83E
:105370007040FFF7F7BC1A4308BF32220B6916BF13
:10538000332201214FF0FF31FFF796BD0D2910B5F3
:1053900004460BD10949C06800F0E0F92322034616
:1053A00001212046BDE81040FFF744BD4231CAB29A
:1053B000BDE810400121FFF7DCBC00BF80A507104D
:1053C00038B504460D460F21FFF7E0FF2046294679
:1053D000FFF796FC02215C22FFF7CBFC2046BDE8DC
:1053E00038406FF00301FFF77FBCF8B504460F4665
:1053F00016461D460F21FFF7C9FF2046FFF7D7FCD1
:1054000039462046FFF7E0FD31462046FFF778FC9D
:10541000FFF7C0FC012220462121FFF72EFD204688
:105420000821FFF79FFE2A462046BDE8F8400021EC
:10543000FFF786BE437970B5012B044614D00025D2
:10544000C26B436A05649B1AC3632069038DAB4238
:105450000CD86379032B1BD1606AE36AA0622363D3
:10546000184404F01EFD6063012070BDC36A03EBA5
:10547000C50213F83530052B08D101212046967856
:10548000FFF753FC0670236C013323640135DCE71E
:10549000042BE9D1D4E90A13626A8A4202D1216B52
:1054A000994203D00020A2622363DEE794F83830EB
:1054B0001BB10649064813F02BF9E268C38A52680B
:1054C000616B006900F09FF9CEE700BF11EB061099
:1054D0001499071000232DE9F74F1646C0E904235D
:1054E0000122378C83608371C362436280F8383055
:1054F000738C04461F449742B8BF1746B6F82490F1
:10550000B6F81A804FEA8905013F826105F004056B
:1055100008F003021543B6F816A0FA0002F078026C
:10552000B38BB6F81EB041710AF00F0A15433F095C
:105530004FEA59094FEA980847EA090242EA0A0283
:1055400042EA08021A4352EA0B0234D101212046F2
:10555000FFF7EBFB05706379022B18D9D4E90F78BC
:105560007D0008F0010305F07E054FEA5808BF09E9
:105570001D4358EA07094FF00101204618BF45F0C6
:105580008005FFF7D2FB0570B9F1000FE8D1636A1F
:10559000B18AE363E06800F0CBF82B49024620466D
:1055A000FBF74AFA0025738BB28B1344AB4248DDFC
:1055B0000022318D41E0012120460193FFF7B5FB28
:1055C00065F07F053A0105704FEA8A15019B02F0EC
:1055D000300205F0400515430BF001021543DA00D7
:1055E00002F0080215434FEA880202F00402154354
:1055F0004FEA490202F002021543BF084FEA590977
:105600004FEA5A0A4FEA58085B084FEA5B0B93E7E8
:10561000F36A03EBC2035878C0070DD55888A84237
:105620000AD15968E06800F083F80749024620462D
:10563000FBF702FA0135B6E701329142E8DC0521B9
:10564000F0E703B0BDE8F08F2B4D001010B5044615
:10565000442004F026FCC46010BD10B50446C161AE
:10566000880004F005FC206210BD10B50446006AF5
:1056700004F026FC2046BDE8104004F021BC0000E8
:10568000F8B588422DED028B07460C4603D1012068
:10569000BDEC028BF8BD234B984201D10020F7E707
:1056A0009942FBD008F000FE0546204608F0FCFDBC
:1056B0008542F3D11C4B9D4213D17A6863689A42AC
:1056C000ECD100253E1D04347B68AB42DFD954F891
:1056D000041F56F8040FFFF7D3FF0028DED0013572
:1056E000F2E72146384609F099F80028D6D00F4B4A
:1056F0009D42CCD138460BF042F908EE100AB5EEC7
:10570000408AF1EE10FAC2D120460BF038F918EEBB
:10571000103A00F0004003F000431B1A5842584171
:10572000B6E700BF70920710F0A90710209C071081
:10573000C90010B50122044641F00201083004F00E
:105740003DFC43683BB9A368C3F3DC03013B5B004A
:1057500043F001034360C3F34F0010BD70B505462D
:105760000E460024EB69A34208D8314605F1140027
:105770000CF0B1FBEC69013C204670BD2B6A314650
:1057800053F82400FFF77CFF0028F5D10134E9E746
:1057900010B50122044614F06BF90378012B05D1F2
:1057A0002378012B8CBF04230223037010BD70B536
:1057B00005460E46104619461C4614F049F9037872
:1057C0005A1E012A06D80022736821462846BDE8E1
:1057D00070401847032B02D101227368F5E7366841
:1057E000042B2146B446428808BF00232846BDE862
:1057F000704018BF0123604708B5102004F051FB2A
:105800000123837008BD10B5022403F00103C0E931
:1058100001128470C37010BD9DF80430426003F023
:105820000103C370009B039A8360029B8170037322
:10583000C36862F31F23C3607047000070B504465D
:1058400023880D461046CBB10A46002321460BF0B3
:10585000D9FB2346002213F8011B1D1B090605F185
:10586000FF3503D4D30725D51C4B19E013F8011BD2
:10587000C1F3801606FA05F52A43EEE7A3786668B9
:10588000042B0FD0052B16D0032B0A46A3683146F4
:105890001DD10BF0B7FB124B0360E37853B1114BF2
:1058A000036007E010201049A46808F0F0FCC0E98C
:1058B0000154C66070BD10200C49257BE46808F0D7
:1058C000E6FCC4F31724C0E90156C460F2E70BF00C
:1058D00099FBE378002BEDD0C6E700BFE49D0710ED
:1058E0009C9C0710C89D0710849C07106C9C071097
:1058F00038B514461D4612F4807218BF1A46FFF7D9
:105900009DFF620902F008022A44E1B2BDE8384076
:1059100009F07ABD02F00F03022B10B5044608D03F
:105920000A460C490C480AF08DFE636A1860002094
:1059300010BD836A00201209834204D1238C042BFA
:10594000F5D10649EEE7E16A51F820109142EFD017
:105950000130F1E71CEB0610CC98071022EB061083
:1059600070B50646B2B1900714D110792E2811D126
:1059700094687CB1A2070DD16568EAB2922A09D178
:105980002D0A022D06D10120A2681A60E268049B4C
:105990001A6070BD0A46044804490AF053FE736A4F
:1059A00018600020F5E700BFCC9807102EEB06101A
:1059B0007FB504460D46104603A91E4668F078FDE3
:1059C00048B92A460B490C480AF03CFE636A186045
:1059D000002004B070BD039808F046FD30EA0602CE
:1059E0000346F6D02A460549009603480AF02AFEE7
:1059F000ECE700BF41EB0610CC98071047EB061010
:105A0000038C70B5032BC46A03D10023856A9D42C1
:105A100005D144F82120FAF702FD012070BD54F8A9
:105A20002360964201D00133F1E70020F6E7FAF750
:105A30005FBD032910B50446018442620FD1826A1A
:105A40000021C06A920067F0C5FE01212046FAF7E6
:105A5000BEFC2046BDE810400021FAF717BD04291E
:105A600014BF01210221F1E700F00F03022B02D144
:105A7000000912F0A7B90148704700BFF36A071088
:105A800070B5054610460E46FFF7EEFF0378732B00
:105A900019D14378BBB103460A22002013F8014F05
:105AA0005CB91F2808D91F2332460A490A480AF060
:105AB000C9FD6B6A1860002070BD303C092C02D80B
:105AC00002FB0040EAE73246044903480AF0BAFD07
:105AD000EFE700BF5DEB0610CC9807106AEB0610ED
